:020000040000FA
:10000000580A0020F900000001010000D51F00007F
:1000100005010000070100000901000000000000C8
:100020000000000000000000000000000B010000C4
:100030000D010000000000000F0100000923000076
:100040001301000013010000130100001301000060
:100050001301000013010000130100001301000050
:1000600013010000A50400001301000013010000AB
:100070001301000013010000130100001301000030
:100080001301000013010000130100001301000020
:100090001301000013010000130100001301000010
:1000A0001301000013010000130100001301000000
:1000B00013010000130100001301000013010000F0
:1000C00013010000130100001301000013010000E0
:1000D00013010000130100001301000013010000D0
:1000E00013010000DFF80CD000F092F80048004740
:1000F0008D280000580A002006488047064800471F
:10010000FEE7FEE7FEE7FEE7FEE7FEE7FEE7FEE7C7
:10011000FEE7FEE765240000E50000002DE9F05F42
:100120000546002092469B46884606468146402466
:100130001BE0284641464746224600F02FF853462A
:100140005A46C01A914110D311461846224600F073
:1001500016F82D1A67EB01084F46224601200021B0
:1001600000F00DF817EB00094E41201EA4F1010428
:10017000DFDC484631462A464346BDE8F09F202A48
:1001800004DB203A00FA02F1002070479140C2F1EE
:10019000200320FA03F3194390407047202A04DB20
:1001A000203A21FA02F00021704721FA02F3D040F0
:1001B000C2F120029140084319467047F0B400F0A4
:1001C000004221F0004120F00040CE0DC30DC1F3EC
:1001D000160141F40001C0F316004C42154640F4EC
:1001E0000000761E09E010EB440002D582F00042C8
:1001F00040428842F7D840005B1EB342F9DA18B19A
:10020000F0BC002100F01FB82846F0BC7047000089
:10021000064C074D06E0E06840F0010394E8070053
:1002200098471034AC42F6D3FFF760FF103500005A
:10023000303500000029A8BF7047401C490008BFA6
:1002400020F00100704710B4B0FA80FC00FA0CF006
:1002500050EA010404BF10BC704749B1CCF120043E
:1002600021FA04F411FA0CF118BF012121430843CB
:10027000A3EB0C01CB1D4FEA00614FEA102042BFF7
:10028000002010BC704700EBC35010440029A4BFED
:1002900010BC7047401C490008BF20F0010010BC92
:1002A000704700002DE9F04186B040F24C0542F263
:1002B000004206460720C2F200050024C4F20102F3
:1002C000C5E90844AC62AC634FF48021C5E9002065
:1002D0002846C5E90244C5E90441AC6100F066FE68
:1002E000CDE90246012002AE4FF0020804900D272E
:1002F00028463146C5F84080059700F09DFD122044
:10030000CDE9024028463146CDE9048700F094FD4E
:100310002A6C69462846002300F000FF019912A0CC
:1003200002F048FB40F24020C0F20800056817A028
:10033000294602F03FFBA8B2E943B0EB114F0ED1C2
:100340006FF31F3540F6B830019905FB00F06FF3ED
:100350001F31B0FBF1F417A0214602F02BFB204621
:1003600006B0BDE8F08100BF546865206164632079
:10037000636F6E7665727420726573756C74203A63
:100380002020307825303878200D0A005468652008
:1003900061646320312E3276207472696D2076613B
:1003A0006C7565206973203A2030782530387820C4
:1003B0000D0A00005468652061646320567265660A
:1003C000502076616C7565206973203A2025646D34
:1003D00056200D0A000000002DE9F0438FB040F2D6
:1003E0004C0442F200484FF00109C2F2000400261A
:1003F000C4F2010842F26040C4E90896A662A6630E
:10040000C4E90089C4E90266C4E9046040F2380026
:10041000C2F2000060642046C4F8189000F0C6FDE7
:1004200006200BAD0327CDE90B6020462946276443
:10043000CDE90D9700F000FD0D20CDE90B60022005
:10044000CDE90D072046294600F0F6FC0A20CDE94B
:100450000B6020462946CDE90D7700F0EDFC08F54C
:100460006D400496CDE901094FF4805003904FF0A0
:10047000006006904FF4002007904FF4800001AD1B
:100480000596CDE9080628460A9600F05BFFD4E9F8
:1004900010212046E56300F0C3FE02F0C3F90FB05F
:1004A000BDE8F08310B541F20800C4F2020050F834
:1004B000041CC90700D110BD01689FED5E1A41F010
:1004C0000101016040F23800C2F200000188838817
:1004D0006FF31F316FF31F3300EE101A02EE103A64
:1004E000B8EE400AB8EE422A008920EE010A9FEDDC
:1004F000523A22EE011A40F250226FF31F30C2F23C
:10050000000230EE030A31EE031A03EE100A1180E6
:1005100040F2562140F21424C2F20001B8EE433AF0
:100520009FED464AC2F20004088084ED060A30EED0
:10053000012A607884ED081A40F25222B1EE422A74
:1005400023EE043AC2F2000284ED072A012184ED71
:10055000093A0328138021704BD8DFE800F0020825
:100560000A0200F039FA01F009FE012040E0022001
:100570003EE004F118030ECB40F24C10C2F2000032
:10058000D4F810C0D4F824E080E80E4040F2701097
:10059000C2F20000C0F808C000F038FA40F25C1067
:1005A000C2F2000090ED000A90ED011A9FED242A9E
:1005B00090ED023A80FE420A81FE421A83FE422AF0
:1005C00042F63440BCEEC00ABCEEC11ABCEEC22AF0
:1005D000C4F2010080ED000A80ED011A80ED022ACC
:1005E0002078002804BF03206070A07808B10420A0
:1005F000607094ED090AB3EE041AB4EE410AF1EE0C
:1006000010FA02DA0120A07010BD9FED0E1AB4EEB0
:10061000410AF1EE10FA7FF74EAF94F83600411C14
:10062000062884F8361038BF10BD616A0220A07019
:10063000A16310BDB6F37D3C000004C224977F3C4B
:100640000040834500005C42F0B581B02DED108B79
:1006500040F20807C2F2000797ED042A9FED9AEADC
:1006600030EE608A22EE0E0A92ED002A28EE000A91
:1006700097ED053A32EE00FA97ED060AB4EE4F3ADE
:100680008FFE000A1446F1EE10FA0D4630FE030A02
:10069000B0EE619A7FEE408AB0EE41AAF5EE408A54
:1006A0000646C0ED008AF1EE10FA02DABFEE000A4B
:1006B00006E0F5EE408AF1EE10FA03DDB7EE000A2F
:1006C00086ED000A96ED000A9FED80CABBFE400A47
:1006D000F0EE4C0A02F03AFA97ED081AB7EE00DA9B
:1006E00021EE0E1AB0EE40BA68EE019ABFEE008A13
:1006F000F5EE409AF0EE4C0AF1EE10FA3DFE292A92
:10070000B8BFB0EE482A86ED002ABBFE421AB0EE12
:10071000410A02F01BFAF5EE408AF1EE10FA26D0FB
:10072000B1EE4B1ABDEEC11ABDEECB2AB5EE40BA02
:1007300011EE100AB1EE401AF1EE10FA12EE101A94
:10074000BDEEC11ABDEEC02AB8BF4142C8B2B5EE77
:10075000400A11EE101A12EE102AF1EE10FAB8BF8C
:100760004A42D1B2884202D19FED59BA03E09FEDCF
:10077000590A29EE80BA97ED050A97ED061AB4EEEC
:1007800040FA8FFE011AF1EE10FA30FE010A3AEE3D
:10079000491A86ED000A97ED040A94ED013A20EE1D
:1007A0000E2A97ED084A21EE022A97ED050A33EE4C
:1007B000029A24EE0E2AB4EE409A21EE02AAF1EE3D
:1007C00010FA0ADA97ED061AB0EE490AB4EE419A29
:1007D000F1EE10FAD8BFB0EE410A39EE40CADFEDB3
:1007E0003B0AB5EE40CAF1EE10FA3DFE0C1AB8BF56
:1007F000B0EE481A85ED001ABBFE410A02F0A6F9D8
:1008000097ED051A97ED062AB4EE419A89FE022A61
:10081000F1EE10FA31FE021AB5EE40AA85ED001A8B
:1008200094ED001AB0EE409A3BEE011AF1EE10FA88
:1008300084ED001A08DBB5EE40AAB0EE4D8AF1EE69
:1008400010FAD8BFB0EE4A8ADFED200AB0EE480AAF
:1008500002F07CF9B5EE40CAF1EE10FA26D0B1EE06
:10086000491ABDEEC11ABDEEC92AB5EE409A11EE85
:10087000100AB1EE401AF1EE10FA12EE101ABDEEA7
:10088000C11ABDEEC02AB8BF4142C8B2B5EE400A97
:1008900011EE101A12EE102AF1EE10FAB8BF4A4209
:1008A000D1B29FED0B0A884200FE0AAA9FED090A09
:1008B00094ED011A2AEE000A31EE000A84ED010AD5
:1008C000BDEC108B01B0F0BD63149D44000080436B
:1008D0000000000017B7D13890ED011A21EE001A80
:1008E00081ED001A90ED002A22EE202A31EE421A04
:1008F00081ED001A90ED011A21EE201A82ED001A06
:1009000090ED002A22EE000A31EE000A82ED000A84
:100910007047000090ED011A21EE001A81ED001AD7
:1009200090ED001A21EE201A82ED001A91ED002AB6
:1009300031EE021A81ED001A90ED001A21EE000A44
:1009400082ED000A90ED011A21EE201A31EE400AE4
:1009500082ED000A704700009FED1D3ABEEE002AAE
:1009600020EE024A20EE833A34EE035A34EE433A44
:1009700080FE454A80FE056A84FE434A86FE036A7D
:1009800034EE064A24EE022A32EE000A35EE024A1E
:1009900033EE022A80EE010A84EE013A82EE011A59
:1009A000B6EE002A9FED0B4A32EE400A32EE433A91
:1009B00032EE411A20EE040A23EE042A21EE041A34
:1009C00080ED000A80ED012A80ED021A704700BF19
:1009D000D7B35D3F0038834540F24810C2F20000B3
:1009E0000021016040F27010C2F20000C0E9001165
:1009F00040F22810C2F20000C0E90011C0E9021163
:100A0000C0E90411C0E90611704700002DE9F0416A
:100A10002DED108B8AB040F22815C2F2000595ED3D
:100A2000000A40F27018C2F2000888ED000A02F0D5
:100A3000E5F898ED001AB0EE40DAB0EE410A01F0A8
:100A4000DDFF40F24C16BEEE005AC2F200068DEDFC
:100A500005DA96ED011A96ED022A96ED003A31EE8E
:100A6000024AB0EE40EA24EE054A31EE421A33EE75
:100A7000040A9FEDE13A9FEDE12A20EE039A21EE70
:100A8000028AB0EE490AF0EE480A05A88DED06EAA2
:100A900002A904AAFFF73EFF98ED020A95ED011A9C
:100AA00040F20807C2F2000730EE410A97ED021A41
:100AB00095ED022A20EE010A97ED031A30EE420A64
:100AC00080EE011AB2EE040AB4EE401A88ED011A63
:100AD000F1EE10FA02DD88ED010A08E0BAEE040A30
:100AE000B4EE401AF1EE10FAB8BF88ED010A9FED9E
:100AF000C4CADDED020A98ED011ADDED041A03AC5B
:100B0000B0EE4C0A05F1180202A92046FFF79CFD41
:100B10009DED030ADDED020A05A801A92246FFF7B3
:100B2000DBFE9DED01BA9DED03AA96ED031AB0EE32
:100B30004B0AF0EE4A0A07A8FFF70EFF97ED041ADA
:100B400095ED043A29EE012A28EE011A95ED034AA3
:100B500073EE418A34EE42FA97ED090A2EEE281A16
:100B60002DEE0F2A97ED0A3A31EE421A23EE002AB3
:100B700095ED053A21EE022ADFEDA29A73EE02AA64
:100B8000D7ED00BAF4EE69AA97ED01EA9FED9E2A2F
:100B9000F1EE10FACDED048A8DED021A02DD3AEE87
:100BA00082CA06E0F4EE42AAF1EE10FAB8BF3AEEBD
:100BB000A9CA20EE000AB5EE40CA61EE00CAF1EE05
:100BC00010FACDED02CA02DABFEE000A08E0B5EE77
:100BD00040CAF1EE10FAD4BFB0EE4C0AB7EE000AEC
:100BE000DFED8A0A01F0B2FFF5EE40CAB0EE40DA5E
:100BF000F1EE10FA04DA0020CBF68070049009E0E0
:100C0000F5EE40CAF1EE10FAD2BFCDED04CA4FF0B6
:100C10007E5004909DED040ADFED7C0A01F096FF02
:100C2000B5EE40CA8DED040AF1EE10FA26D0B1EE11
:100C30004D1ABDEEC11ABDEECD2AB5EE40DA11EE69
:100C4000100AB1EE401AF1EE10FA12EE101ABDEED3
:100C5000C11ABDEEC02AB8BF4142C8B2B5EE400AC3
:100C600011EE101A12EE102AF1EE10FAB8BF4A4235
:100C7000D1B2884202D19FED620A03E09FED640A7F
:100C80002CEE800AF4EE69AA2BEEAB2A2FEE0F3A77
:100C9000F1EE10FA0ADC9FED5C1AF0EE6A9AF4EEBF
:100CA00041AAF1EE10FAB8BFF0EE419A9FED581A42
:100CB00098ED005A29EE814A32EE432A34EE054A75
:100CC0009FED555A28EEA83AB4EE454A85ED004A04
:100CD000F1EE10FA02DD9FED4F5A04E0B5EE404A06
:100CE000F1EE10FA03DA34EE054A85ED004A9FED85
:100CF0004B4A97ED075A29EE844A95ED017A84EE26
:100D0000054A97ED025AF0EE080A97ED036A25EEC0
:100D1000205AD8ED011A32EE432A61EE861A95ED7B
:100D2000026A34EE474A74EE040A8DED024A60EE20
:100D3000850A70EEA10A76EE200A60EE810A77EE4F
:100D4000200A9FED377AC5ED010AF4EE470AF1EE6D
:100D500010FA09DA9FED337AF4EE470AF1EE10FA51
:100D6000D8BF85ED017A01E085ED017A97ED087A2B
:100D700028EE823A2FEE022A25EE055A69EE070A7E
:100D80002EEE022A24EE054A3BEE605A2EEE033A7E
:100D900032EE052A28EE075A24EE014A3AEE455A69
:100DA00036EE044A33EE053A22EE012A95ED036A47
:100DB00095ED047A95ED055A23EE011A079885ED15
:100DC000024A40F25C11C2F2000136EE022A37EE0E
:100DD000011A30EE050A089A85ED032A086085EDB0
:100DE000041A099885ED050A4A6088600AB0BDECCE
:100DF000108BBDE8F08100BFABAA2A3F3ACD133F6C
:100E0000000000000060EA460060EAC6000080437F
:100E100017B7D138DB0FC9C0DB0FC940EBC9184188
:100E20000000FA440000FAC44FF21440C4F201007A
:100E30000068C0F34030704770B50446026842F263
:100E40000040C4F20100824234D14B68142B31D8E7
:100E5000D1F80CC0BCF1050028BF0A282AD8D1F867
:100E600008E0AEF10105072D24BFAEF10800082807
:100E700020D8206958B1072B4FF0010088BF70BD02
:100E8000966B984006439663D66B304309E0072B78
:100E900008D80120966B984086439663D66B26EA65
:100EA0000000D063082B07D3906BA3F10806F04035
:100EB000C00701D0012070BD086838B1104650F855
:100EC0002C1F03F01F0521F01F012CE0042D0BD86F
:100ED00010460EEB8E0650F8201F1F25B54003FA72
:100EE00006F6A94335401EE0AEF10600052807D8F6
:100EF00010460EEB8E0150F824EFA1F11E050AE01A
:100F0000AEF10C000428D5D810460EEB8E0150F837
:100F100028EFA1F13C051F2101FA05F603FA05F5BA
:100F20002EEA0601354029430160106A216C000950
:100F3000013960F31F11072B116203D802F1100071
:100F400099000EE00F2B06D86FF01F0000EB830115
:100F500002F1140005E06FF03F0000EB830102F1A5
:100F6000440003680F268E400CFA01F1B343314070
:100F700019430160A07DC00707D0106C40F001004C
:100F800010644FF47A7001F097FAA07D10F01C0FF6
:100F900004BF002070BD2068C16841F08001C160BD
:100FA0004FF47A7001F088FA002070BD10B5002867
:100FB00000F085800446006842F20041C4F201015D
:100FC00088427CD1A068012879D8E068012876D8C9
:100FD0002069012873D8206A012870D8606A012826
:100FE0006DD8A06A01286AD8E06A072867D8206B04
:100FF000082864D8A06B012861D860680F285ED8E3
:1010000060690021B1EB505F59D1A069072856D81B
:10101000E069072853D8204600F054F894E8070008
:10102000D4F824C0C368002A43F08063C360C36857
:1010300061F3C603C360816821F4001118BF01F594
:1010400000118160C168BCF1010F21F0020108BFED
:101050000231C160A16AE1B1E16861B1C16841F0EA
:101060000071C160616BC268002922F0807218BFF4
:1010700002F18072C260C168D4E90B2362F353416C
:10108000C160C16863F31751C160C16841F4803128
:10109000C1608168A269E36862F31241816043B173
:1010A000816841F4007181608168E26962F34F31C7
:1010B0008160016A21F00F010162002010BD012052
:1010C00010BD00002DE9F04385B043F2B836044668
:1010D0004FF000084FF0050901ADC0F200060027EF
:1010E00003E000BF0C37C02F0ED0F05961690142F8
:1010F000F8D0F01981680079CDE901192946CDF8B9
:101100000C8000F049FAEDE71C2001F047FA01F0ED
:101110003DFB01F05FFB05B0BDE8F083F0B581B0A9
:101120001E4615460F46044600F052F80146002FB1
:101130004FF001004AD0002948D1002D6764009685
:1011400040D0206801E000BFE5B301688A0707D4FA
:101150004A0713D4CA061FD4090723D52EE000BFBF
:10116000426B636C42F0004243F8042B0268013D7D
:1011700042F00202026063644A07EBD5026B636CC3
:1011800042F0804243F8042B0268013D42F0040221
:1011900002606364CA06DFD5026842F01002026092
:1011A00009070BD400990029CED00099013900918C
:1011B00000990029C8D1032001B0F0BD016841F0B9
:1011C00008010160204600F063F8002001B0F0BD86
:1011D000016842F20042C4F2010291421DD1126A3A
:1011E000006C02F00F020132824216D1C86840F052
:1011F0000100C860086840F03F0008600868C00748
:10120000FCD0886810F4E02F1CBF0020704788686D
:1012100040F4801088600020704701207047000073
:1012200010B50446036842F20040C4F20100834254
:101230001CBF012010BD806894460A46C0040AD431
:10124000D868C00703D0D86820F00100D86098683B
:1012500040F480509860D86803F1340140F00100F8
:10126000D860186840F03F001860586820F01E00F1
:101270005860E06B634600F0EBF821688A6812F46E
:10128000E02F18BF10BD8A6842F480128A6010BD3A
:1012900042F20C42C4F201020168A2F10C0399422D
:1012A0001CBF01207047806838B1106840F004000E
:1012B000106000BFC8684007FCD4C86820F0010077
:1012C000C860086840F03F000860002070470000D8
:1012D00070B5D0F800E04EF60070CBF6FD700EEB66
:1012E000000C4FEA7C10072884BF012070BD4FEA34
:1012F0005C1040F2A80CC2F2000C0CEB0014CEF80B
:101300000010CEF80420CEF80840DEF80C5040F66D
:10131000FF76B54300011D43CEF80C504CF8001089
:10132000C4E90124DEF80C004CF201016FF30B005C
:101330001843E060DEF810000843CEF810000020EB
:1013400070BD0000B0B5044600684EF60071CBF6E3
:10135000FD7108444FEA7010072834D8A0680028AF
:1013600018BFB0F5805F27D1E06832282BD8A0697C
:10137000002818BFB0F5002F22D1E0690125002810
:1013800018BFB0F5800F20D11A2001F007F901F045
:10139000E9F901F00BFA41F23000C4F202000560F5
:1013A000A16820680022B1F5006F026112D0B1F58A
:1013B000805F14D101220EE0B0F5006F03D1D3E7B6
:1013C000B0F5802FD9D00120B0BDB0F5001FDBD023
:1013D0002846B0BD1322E36803FA02F2E26004F18A
:1013E0000C0C9CE82C10114301614FF00041C160CE
:1013F000C16843EA05021143C160E169C26841EA7C
:101400000C0111430025C1602846B0BDD0F800C0D2
:101410004EF60070CBF6FD7060444FEA701007285E
:1014200084BF01207047CCF80010CCF80420DCF811
:101430000C0040F6FF7188431843CCF80C00DCF830
:1014400010004CF201010843CCF810000020704756
:1014500080B5D0F804C0BCF1010F84BF012080BD6D
:10146000BCF1000F02D0FFF733FF80BDFFF7CEFFC6
:1014700080BD000080B500F001F880BDB0B541F23C
:101480005971CDF2B711A0FB0112510B232201FBC0
:1014900002F14CF6CD4301F1010C4DF68361C4F22B
:1014A0001B31A0FB0112910C332201FB02F2CCF69E
:1014B000CC43A2FB0323052201EBC10102EBD303C2
:1014C00049F2FF42C0F6BA22904201F1010502D969
:1014D0004FF480613EE045F60071C0F64C11884241
:1014E00002D94FF4607135E043F20021C0F61B01D0
:1014F000884202D94FF440712CE040F20051C0F212
:10150000EA61884202D94FF4207123E04CF6007161
:10151000C0F27B51884202D94FF400711AE042F2C6
:101520008061C0F26941884202D94FF4C07111E074
:1015300047F20051C0F21931884202D94FF480714C
:1015400008E044F6000EC0F2E81E0021704588BF96
:101550000121C9010C22C0F21002D3624FF48013A2
:101560001C6824F4786421431960C2F800C04AF270
:101570004172C0F282724FF0101190420D6038BF7C
:10158000B0BD00F01DFD40F64400C4F2010001684A
:1015900041F480710160B0BD2DE9F04F85B00528A0
:1015A00000F2AB81054608680C460021B1EB104FF4
:1015B00040F0A38180B2002800F09F81606841F272
:1015C0000101C0F2010100278842CEF6FF7709DC55
:1015D000B0F5803F10DA032818BF052811D041F27A
:1015E000040106E0C11905290BD341F20201C0F242
:1015F0000101884205D080E1A0F58030022880F00A
:101600007C81052D55D80120A8404FF2000640F6F8
:101610007008C4F20106C4F2010881071BD110F062
:101620000C0F2ED0012000F0B9FF08F1300008F1B6
:10163000340C08F1440108F14802032D06F58066D8
:10164000039041D1236808F128001B042360029015
:1016500008F12C0049E0002000F0A0FF08F1040C84
:1016600008F11401012D08F11802CDF80C8031D1D8
:101670002368A8F108001B0423600290A8F104006D
:1016800033E00C2000F08AFF08F1600008F1640CE0
:1016900008F1740108F17802052D06F50066039043
:1016A0001ED1236808F158001B040290002023601B
:1016B0001BE00020029000200190002003904FF0DA
:1016C000000C0021002211E008F12000029008F136
:1016D00024000AE0A8F110000290A8F10C0004E038
:1016E00008F15000029008F1540001902568002D87
:1016F00000F003814FF00108CDF800C004911CE018
:101700006FF01F00019900EB8A000B680F2505FAA6
:1017100000F023EA0000086004996068052810685A
:1017200014BF20EA0B0540EA0B051560256835FA61
:1017300008F008F1010800F0E080A8F1010A01209A
:1017400000FA0AF315EA030BF0D0D4F804E0BEF572
:10175000803F0FDCBEF1030F54D041F204008645F8
:1017600050D0BEF5803F40F08680336823EA0B03FB
:10177000336080E00EEB07030025052BC1F2010565
:1017800059D230682EF0010320EA0B003060B069B6
:10179000AB426FEA0B0940EA0B00B0610FD1F06970
:1017A000AE4500EA0900F061306A00EA09003062E3
:1017B000706A14BF00EA090040EA0B007062A81CBE
:1017C000864507D1F06900EA0900F061306A40EA15
:1017D0000B0030624FF6FD70CEF6FE7070440128AB
:1017E00049D8F069002340EA0B00C1F20103F0611F
:1017F0000333706A9E4514BF00EA090040EA0B00FB
:10180000706238E0BAF1100F554628BFA8F11105F3
:10181000072D1ED80299AD000B680F20E768A8407D
:1018200023EA000007FA05F318430860002704992B
:10183000DDF800C01DE0BEF1011F05D041F202003D
:10184000C0F20100864516D1336843EA0B033360CA
:1018500011E06FF01F00019900EB85000B680F2766
:10186000E5688740BB4305FA00F01843086000278D
:101870000499CEF6FF77A568022D07D0012D0FD071
:10188000CDB9039B186820EA0B000DE0039B186894
:1018900020EA0B001860DCF8000040EA0B0508E0C5
:1018A000039B186840EA0B001860DCF8000020EA8F
:1018B0000B05CCF800506079C006086854BF20EAD8
:1018C0000B0540EA0B050D60A079C0073FF425AF7A
:1018D000BAF1100F28BFA8F1110ABAF1070F3FF6AD
:1018E0000FAF02994FEA8A0308680F2505FA03F340
:1018F00098430860DDF800C00EE705B0BDE8F08F42
:1019000080B5026841F6FF71C4F200018A424FF0CF
:10191000010116DC40F2FF73C4F200039A4225DD98
:1019200040F60003C4F200039A4233D041F20003B0
:10193000C4F200039A422DD041F20043C4F20003E6
:1019400026E043F6FF73C4F201039A4216DD44F227
:101950000003C4F201039A421CD044F60003C4F20F
:1019600001039A4216D044F200430FE0B2F1804FD7
:1019700010D040F20043C4F2000309E042F2000339
:10198000C4F200039A4205D042F60043C4F20103B8
:101990009A426CD104211160D0E901CEC36811686C
:1019A000002B21F0800118BF80311160A2F180412D
:1019B000A1F596314FEAB1210729C2F82CE0C2F80F
:1019C00028C007D8012303FA01F111F0E10F1CBF71
:1019D0000169116342F6FF33C4F2010301219A4207
:1019E00051610DDC40F2FF71C4F200018A4216DC45
:1019F000B2F1804F2AD040F20041C4F2000123E04E
:101A000044F2FF31C4F201018A4213DC42F6004184
:101A1000C4F201018A4219D044F2000112E040F6FA
:101A20000001C4F200018A4210D042F20001C4F267
:101A3000000109E044F60001C4F201018A4205D028
:101A400044F20041C4F201018A4205D11168836960
:101A50001B0A63F30921116011684069000960F3F2
:101A6000061111601068002120F004001060084683
:101A700080BD00000246806820F0800090605068C1
:101A800020F070005060D1E9000193681943916023
:101A9000516801430020516070470000B0B540F22A
:101AA000004EC4F2000E0EF5943C032AA0EB0E0388
:101AB00015D8A0EB0C0400F14045B4FA84F4B5FA53
:101AC00085F564096D092C43B3FA83F56D092C4340
:101AD000A3F58065B5FA85F56D092C431ED10EF589
:101AE000E055A84208BF002A18D0B2FA82F54FEAA2
:101AF000551EA3F5A235B5FA85F50024022A38BF94
:101B000001246D0915EA0E0F01BFA3F59E35B5FA44
:101B100085F56D0914EA050400F04681032A00F2F8
:101B20004C81DFE812F004005B00AF000301026AA1
:101B300022F0010202628A68036A002AA0F1804250
:101B4000A2F5963223F002034FEAB22218BF023305
:101B5000072A036210D80123934013F0E10F0BD042
:101B6000036A23F004030362CB68056A002B25F0A7
:101B7000080518BF08350562836923F0FF038361F8
:101B80000B694D68012B456303D1836943F004035E
:101B900083618369072A43F00803836117D801230F
:101BA00003FA02F212F0E10F11D04268D1E90535D3
:101BB00022F48072002B18BF02F5807242604268E6
:101BC000002D22F4007218BF02F500724260826993
:101BD000096822F0700242EA011150E0026A22F024
:101BE000100202628A68036A002A23F0200318BFE9
:101BF0002033604503620BD1026A22F04002026288
:101C0000CA68036A002A23F0800318BF8033036286
:101C1000826922F47F4282610A694B68012A8363E8
:101C200003D1826942F480628261826942F4006376
:101C3000A0F18042A2F596324FEAB222072A8361D0
:101C400017D8012303FA02F212F0E10F11D0426813
:101C5000D1E9053522F48062002B18BF02F58062BD
:101C600042604268002D22F4006218BF02F5006253
:101C700042608269096822F4E04242EA01318161EE
:101C80000020B0BD026A22F4807202628A68036A90
:101C9000002A23F4007318BF03F500736045036244
:101CA0000CD1026A22F480620262CA68036A002AC6
:101CB00023F4006318BF03F500630362C26922F0D6
:101CC000FF02C2610A69012A03D1C26942F004021B
:101CD000C261C26942F00802C261A0F18042A2F56D
:101CE00096324B684FEAB222072AC36317D8012302
:101CF00003FA02F212F0E10F11D04268D1E9053582
:101D000022F48052002B18BF02F5805242604268D4
:101D1000002D22F4005218BF02F500524260C26941
:101D2000096822F0700242EA01113AE0026A22F4E4
:101D300080520262026AD1E9013522F400520C6934
:101D4000002D18BF02F500520262C269012C22F474
:101D50007F42C261036403D1C26942F48062C261FE
:101D6000C26942F40063A0F18042A2F596324FEAC4
:101D7000B222072AC3610ED8012303FA02F212F03D
:101D8000E10F08D04A694368002A23F4804318BF52
:101D900003F580434360C269096822F4E04242EAE5
:101DA0000131C1610020B0BDA3F5A033B3FA83F3C4
:101DB0005B0913EA0E037FF4B1AE0120B0BD000051
:101DC00080B5D1E900C28B6891F80CE003F4407350
:101DD000734402F480621A440CF4006302EB030CB7
:101DE000D1E90432D1E906E103F480530068634489
:101DF00002F400521A44036801F4804111446EF366
:101E00008D230360416480BD10B50446016844F62B
:101E1000FF30C4F2000081424FF0010008DC44F2C0
:101E20000042C4F2000291420ED044F6000207E0E4
:101E300043F60002C4F20102914205D044F600428A
:101E4000C4F20002914264D1A0684FEA70100328E6
:101E500053D8E06840F0080008284ED121690120DD
:101E6000062904D800FA01F212F0450F03D18629A1
:101E700018BF82294DD161690120B1F5407F3EDB59
:101E80000CD040F20032C2F20002914206D040F281
:101E90000032C1F20002914218BF10BDA0694FEAA2
:101EA000B030032829D8204600F034F8204600F04E
:101EB000DFFB04F108030ECB206811431943C16214
:101EC000D4E9051240F20033C2F20003994242EA1B
:101ED000010242F00102026318D040F20030C1F268
:101EE000000081421CBF002010BD206840F2FC11A0
:101EF000C2F200010860002010BD012010BDB1F544
:101F0000807FCBD0B1F5007FC8D002E002214165CF
:101F1000002010BD10B584B00446006844F20041B2
:101F2000C4F20001884227D043F60001C4F2010147
:101F3000884242D1102000F031FB002000F02EFB3F
:101F40004FF4C06000900320019001200290022015
:101F5000039069460020FFF71FFB607E000606D550
:101F60004FF40060009069460020FFF715FB607E8B
:101F7000400611D41B2417E0112000F00FFB0020B5
:101F800000F00CFB0C200090032001900120029037
:101F900002201C24039003E04FF4805000901B2487
:101FA00069460020FFF7F8FA204600F0E3FB2046E0
:101FB00000F028FC204600F001FC04B010BD000039
:101FC00007B45FF480305FF0005109180A6807BC5D
:101FD00070470000FEE70000F0B595B04FF4F060E8
:101FE00011AC119003250026002021461295CDE961
:101FF0001365FFF7D1FA01202146CDE91155CDE94E
:1020000013650127FFF7C8FA142000F0E1FA222037
:1020100000F0C4FA00F0C2FB00F0E4FB00F018FC92
:1020200000F08CFA044600F095FA054600F086FAB6
:10203000854202D000F082FA44004EF22F32E109CC
:10204000C0F2BE02A1FB02124FF0FF3140F27C143D
:1020500001EBD22142F600422020C2F20004C4F279
:10206000010241F29413C4E90021C4E90237C4E932
:1020700004602046A661FFF743FC702000902068B2
:1020800069460196FFF7F6FC06200A9020680AAD23
:10209000294600221096CDE90C67CDE90E660B9615
:1020A000FFF7FCFC206829460122FFF7F7FC2068B7
:1020B00029460222FFF7F2FC206840F608028169F7
:1020C00091438161C169032221F00801C1610721A7
:1020D0000A9140F6AC510B9129460D96FFF7DEFCB4
:1020E0002068016A41F4805101625A20CDE90277EB
:1020F0000497CDE9050702A920460997CDE907769F
:10210000FFF75EFE20686FF080010161C16841F059
:102110008001C160016841F001010160416C41F43E
:102120000041416400F076FB15B0F0BD80B584B08D
:102130004FF4005000904FF4803001900020039045
:1021400069460220FFF728FA012000F0DBF942F28D
:102150000C40C4F2000050F8041C50F8042C21F08C
:102160000301114340F8041C016841F001010160C2
:10217000016821F04001016004B080BD40F21420EC
:10218000C2F20000002181600161A0F801107047D7
:1021900070B54A1E40F62C06012AC4F201061BD86F
:1021A0000D2246F8042C56F8042CD20620D444F212
:1021B0003F2CC0F20F0C00220CF1010595421AD001
:1021C00056F8043C0132DB06F8D5531E0022634565
:1021D00038BF01221ABB28E056F8082C42F480725E
:1021E00046F8082C56F8082C9205FBD5002217E07B
:1021F0000122A2B919E040F20421C2F2000100223A
:102200000A6056F8081C41F4807146F8081C00BFAB
:1022100056F8081C8905FBD5002200212AB10122AD
:1022200040F20423C2F200031A60326842F0010255
:102230003260326822F40012326000BF326852000D
:10224000FCD543F284430022C0F2000305E000BF46
:102250001432782A04BF012070BD9D588D42F7D1F9
:102260009D186C688442F3D105F108030DCB12036D
:1022700042EAC000326840EA03406FF3D3021043E1
:10228000306030684D1E20F00600022D38BF04304B
:102290003060306840F480003060102000F00CF9AD
:1022A00030684000FCD5102000F006F90420012D14
:1022B00046F81C0C84BF002070BD56F8080C40F492
:1022C000807046F8080C002070BD000040F27C10C1
:1022D000C2F20000006840F25552016A11430162E7
:1022E00070470000B0B501380024B4EB106F18BF80
:1022F000B0BD4EF21005CEF20005686000F07AFA2B
:102300000720AC602860B0BD40F20C20C2F2000093
:1023100001680131016040F26810C2F200000168FA
:10232000002908BF7047016801390160704700004B
:102330002DE9F04186B000210222019103924FF471
:1023400080121368082767F3CB1340F62405C4F204
:10235000010513602A680446920506D4286840F0F7
:102360000100286028688005FCD549F20007C0F20A
:10237000D037781C40F2082640F204288442C2F28A
:102380000006C2F2000845F8141C15D22868C005E2
:1023900007D5286820F48070286000BF2868800571
:1023A000FCD544F60000C0F2E81084420FD1306042
:1023B0000220059001200DE003992046FFF7E8FE7A
:1023C00001900120059002200490346006E0012075
:1023D0003760059004900020C8F80000019880B193
:1023E000012037600590049000200290286820F4B6
:1023F0008070286028688005FCD50020C8F800009F
:102400000AE00498012801D1002004E00498022881
:1024100014BF05200420029030680499B0FBF1F04D
:1024200040F20021C2F20001086055F8100C059A34
:1024300040F2FF718843511E029A084340EA02208D
:1024400045F8100C55F8100CB0F1FF3FFADC30687D
:10245000FFF710F80198B0FA80F0400906B0BDE827
:10246000F081000010B54EF68850CEF200000168F1
:1024700040F6240441F4700101600021C4F201041B
:1024800040F8801C2068C00558BF10BD4FF4801074
:102490000168022262F3CB110160012000F00CF808
:1024A000206820F480702060012000F005F800BF53
:1024B00020688005FCD510BD81B000900098411EB9
:1024C00000280091FAD101B070470000BFF34F8F90
:1024D000BFF36F8F4EF65070CEF200000021016006
:1024E000BFF34F8FBFF36F8F4EF61450CEF2000044
:1024F000016841F400310160BFF34F8FBFF36F8F6C
:102500007047000080B540F64C01C4F201010A6832
:1025100078B142F0010008600120FFF7CDFF42F6DC
:1025200000004CF65321C4F20000CCF653210160A8
:1025300080BD22F00100086080BD000040F2002054
:10254000C2F200000068704740F20420C2F20000AE
:102550000068704740F20820C2F20000006870472F
:1025600080B540F60000C4F20100016841F48031FA
:1025700001605020002100F04FF800F05BF949F2B3
:102580000050C0F6BA20FFF7D3FE28B1FFF79EFF38
:1025900000F058F880BD00BFFEE7000080B540F6AF
:1025A0001C010E28C4F2010107D30E3801220B686A
:1025B00002FA00F01843086005E001224B6802FAB5
:1025C00000F0184348600220FFF776FF80BD00004E
:1025D000B0B540F608042028C4F201040ED3203818
:1025E0000121226801FA00F522EA05002060052099
:1025F000FFF762FF206828432060B0BD01216268B8
:1026000001FA00F522EA050060600520FFF754FF9B
:10261000606828436060B0BD40F63C02C4F201022D
:10262000136801291EBF23F40000106070476FF388
:10263000551343EA40101060106840F40000106029
:102640007047000080B540F20C20C2F2000000216B
:10265000016040F20820C2F20000006844F6D35145
:10266000C1F26201A0FB01018809FFF73BFE80BDBA
:1026700070B50446FFF768FF10B1FFF75FFF11E088
:1026800040F22C20C0F208000068C0F39905FFF763
:1026900055FF44F6D351C1F26201A0FB0101880944
:1026A00000FB05F0616826680A01B0FBF2F544F210
:1026B000402405FB1200C0F20F04A0FB040100231C
:1026C000FDF72CFD89014AF2201241EA9061C0F227
:1026D000070212EB801041F1000122460023FDF7B2
:1026E0001DFD3F2884BF013500207562B06270BDBA
:1026F00010B540F2B41044F200434FF4E131C2F29D
:102700000000C4F20003C0E9003140F20031602251
:102710000024C1F20001C0E90224C0E9044184613F
:10272000FFF772FBFFF716FF0446FFF707FF0246AD
:1027300002A0214600F03EF910BD00BF4D435520D8
:1027400069732072756E6E696E672C2048434C4B1E
:102750003D2564487A2C2050434C4B3D2564487AF3
:102760000A0000004EF28020CEF200004FF400710B
:102770000160704700F01F00012101FA00F04EF2E5
:102780008021CEF200010860704700004EF28020E8
:10279000CEF200004FF48051016070474EF280206D
:1027A000CEF200004FF40051016070474EF200106D
:1027B000CEF200004FF400710160704700F01F007E
:1027C000012101FA00F04EF20011CEF20001086082
:1027D000704700004EF20010CEF200004FF480511E
:1027E000016070474EF20010CEF200004FF400512D
:1027F000016070474EF62350CEF20000E0210170D8
:1028000070470000E421C0F2E00161F31F20C02105
:10281000017070474EF20D40CEF200002021017091
:10282000704700004EF20940CEF200000021017016
:10283000704700004EF60C50CEF2000001684FF6D3
:10284000FF02114041F0BF6141F401310160704766
:102850004EF60C50CEF2000001684FF6FF02114018
:1028600040F20032C0F2FA5211430160704700009A
:1028700040F2FC11C2F200010968002904BF0020E7
:10288000704708608A691207FCD47047FFF768FE3A
:10289000FFF72EFFFFF74AFC0820FDF703FD40F28B
:1028A000A401C2F200010860FDF796FDFFF794FB5A
:1028B000FFF70CFD40F2102440F26C1640F2681550
:1028C00040F2142A9FED378A9FED379A9FED37AA81
:1028D0009FED37BA40F2542BC2F200044FF01408B7
:1028E000C2F200064FF00109C2F200050027C2F251
:1028F000000AC2F2000B00E03780FEF795FA21884B
:10290000C0B10129F8D13088F8B128680028F4D185
:102910009AED040A3780B5EE400A2780F1EE10FAEE
:1029200018D10020C4F24830CAF81000ABF800708B
:10293000E3E700BF0129E0D0308830B128680028E3
:10294000DBD13780A4F80090D7E7C5F80080A6F85F
:102950000090D2E7B4EE480AF1EE10FA08D14CF23A
:102960000000C4F22E50CAF81000ABF80090C4E783
:10297000BBF80000012806D00028BED130EE0B0ABB
:102980008AED040AB9E79AED040AB4EE490AF1EEB9
:1029900010FA04DD30EE0A0A8AED040AADE7CAF83F
:1029A0001070AAE700002F45000048430000C8C28D
:1029B0000000C8420FB4054B10B503A9044A0298A1
:1029C00000F0B8FA10BC5DF814FB0000712800009C
:1029D000000000204100080218BF04200A0E18BFA2
:1029E00040F001004FF07F4232EA010108BF40F0A1
:1029F0000200012808BF05207047000010EE101AE1
:102A000008B5444A6846B2EB410F28D94FF0E6407A
:102A1000B0EB410F94BF00204FF0FF3000900098C2
:102A2000002861DB60EE000A10F0010F45D010F0C5
:102A3000020FDFED391A9FED391A00EEA11ADFED12
:102A4000381A40EE811A21EEA01AF0EE400A40EE4C
:102A5000010A08BFF1EE600AB0EE600A08BD314B12
:102A600021F0004293423CD911F0004FDFED2E0AD5
:102A700020EE201ADFED2D0A19BF31EE601A71EE3B
:102A8000200A31EE201A71EE600ABDEEE01A11EE56
:102A9000100A9FED271A00F0030000EEC10A9FED17
:102AA000251A009000EEC10A9FED231A00EEC10A1C
:102AB0009FED221A00EEC10AB1E79FED211A9FEDAA
:102AC000210A10F0020F00EE810A9FED1F1A00EE9E
:102AD000801AB7EE000A00EE810A18BFB1EE400A74
:102AE00008BD00F067F99AE710EE100A4000B0F157
:102AF0007F4F3CBFB7EE000A08BD07D14FF0010081
:102B000000F012FABDE8084000F044B9BDE8084002
:102B100000F03CB9B61F927E336D4CB9DA82083CA6
:102B2000A0AA2ABE490E494683F9223F0000004B65
:102B30000000C93F00A0FD390020A2331A61342CE7
:102B4000B93AB2BACA9F2A3DDDFFFFBE10B52DEDDE
:102B5000028BF0EE408A18EE900AB0EE608A20F008
:102B60000040C0F1FF40C00F07D118EE100A20F05E
:102B70000040C0F1FF40C00F2BD018EE101A18EE25
:102B8000900AFDF71BFB00EE100A10EE100A6FEA28
:102B9000D05010F0FF0F04BFBDEC028B10BD18EE3B
:102BA000900A00F0004110EE100A00F0004081424F
:102BB00004BFBDEC028B10BD18EE101A10EE100A07
:102BC000BDEC028B61F31E0000EE900A30EE600A4D
:102BD00010BD18EE900A4FF07F41B1EB400F1CBFC3
:102BE00018EE100A5FEA4000C7D1012000F09CF9FE
:102BF000BDEC028BBDE8104000F0CCB800B510EE83
:102C0000101A2DED028B81B0524A6846B2EB410F8B
:102C10002ED94FF0E640B0EB410F94BF00204FF0AB
:102C2000FF3000900098B0EE408A00286ADB10F078
:102C3000010F4BD068EE080A9FED471A9FED470A37
:102C400000EE810A9FED461A10F0020F00EE801A86
:102C5000B7EE000A00EE810A02BF01B0BDEC028BA4
:102C600000BD00BF01B0B1EE400ABDEC028B00BD5B
:102C70003C4B21F00042934241D911F0004FDFED6F
:102C80003A0A20EE201ADFED390A19BF31EE601A38
:102C900071EE200A31EE201A71EE600ABDEEE01AE4
:102CA00011EE100A9FED321A00F0030000EEC10A87
:102CB0009FED301A009000EEC10A9FED2F1A00EE32
:102CC000C10A9FED2E1A00EEC10AABE728EE080AF2
:102CD0009FED2B1ADFED2B0A10F0020F40EE010AD8
:102CE0009FED291A00EE201A61EE000AB0EE480AA4
:102CF00008EE200AB6D101B0BDEC028B00BD00F099
:102D000059F88FE718EE100A4000B0F17F4F0DD24E
:102D100018EE100AFFF75EFE042808BF00F042F824
:102D2000B0EE480A01B0BDEC028B00BD09D1012014
:102D300000F0FAF801B0BDEC028B5DF804EB00F096
:102D400029B801B0B0EE480ABDEC028B5DF804EB87
:102D500000F01CB8B61F927EB93AB2BACA9F2A3D9B
:102D6000DDFFFFBE490E494683F9223F0000004BBC
:102D70000000C93F00A0FD390020A2331A61342CA5
:102D8000336D4CB9DA82083CA0AA2ABE30EE000AA4
:102D900070470000DFED020A80EEA00A70470000D5
:102DA000000000009FED020A20EE000A70470000BC
:102DB000000000102DE9F0014FF07F42B2EB410F0F
:102DC0009FBF4FF0FF310160BDE8F00170474FF049
:102DD000004242EA0123C1F3C752783A551112F07A
:102DE0001F0C434CCCF120067C44C1F3C752A2F126
:102DF00078024FEA621204EB820254F8254008BFC1
:102E0000D2E9015612D0556804FA0CF425FA06F7F7
:102E10003C43976805FA0CF527FA06F8D26807FADA
:102E20000CFCF24045EA08054CEA0206A4FB034C00
:102E3000A5FB0352A6FB03631D449D4234BF01263C
:102E400000261319334416B1934202D903E093428A
:102E500001D2012200E00022624402F1200C92061D
:102E6000DC0C42EA443200EE102A5B03DFED210A5B
:102E7000F8EEC01A00EE103A4FEA9C1C11F0004F19
:102E8000B8EE400AC0F800C020EE201A00EE105A3A
:102E9000DFED190AB8EE400A20EE200A71EE810A31
:102EA00070EE800A10EE902A02F500626FF30B02BA
:102EB00000EE902A70EEE11A31EEC11ADFED101A21
:102EC00030EE411A9FED0D0A20EE800A01EE210A34
:102ED0009FED0C1A00EE810A04BFBDE8F0017047B7
:102EE000CCF180510160BDE8F001B1EE400A7047BD
:102EF000AC050000000000360000802C22AAFD294D
:102F0000DB0FC92F0000C92F02E008C8121F08C13B
:102F1000002AFAD170477047002001E001C1121F5A
:102F2000002AFBD17047000001490860704700008B
:102F3000040000202DE9FF4F8DB00F460546002606
:102F400006E025280BD0DDE90F1290476D1C761C9A
:102F500028780028F5D111B03046BDE8F08F002464
:102F6000A246A1460122EC4900E0044315F8013FC6
:102F7000203B02FA03F00842F7D128782A2810D023
:102F80006FF02F022878A0F13001092914D80AEB3C
:102F90008A0102EB410144F0020400EB010A6D1CBE
:102FA000F0E701CF5FEA000A03D544F40054CAF108
:102FB000000A44F002046D1C28782E2817D115F859
:102FC000010F44F004042A280ED06FF02F02287855
:102FD000A0F1300109290AD809EB890102EB41016E
:102FE00000EB01096D1CF2E757F8049B6D1C287873
:102FF0006C280FD006DC4C2817D068280DD06A2822
:1030000014D104E0742810D07A280FD10DE044F4D4
:1030100000140AE044F4801401E044F44014697898
:10302000814202D104F580146D1C6D1C2A786E2A31
:103030001FD00CDC632A31D004DC002A8BD0582A44
:1030400011D1A3E0642A68D0692A0CD165E0732A03
:103050002ED004DC6F2A73D0702A04D19BE0752A2D
:103060006FD0782A6ED01046DDE90F129047761C9B
:1030700050E1C4F30250022806D0032809D00428E6
:1030800001CF09D0066045E101CFF117C0E9006129
:1030900040E101CF06803DE106703BE117F8040BEB
:1030A0008DF8000000208DF80100EB46012003E0C0
:1030B00057F804BB4FF0FF3061074FF0000102D416
:1030C0000DE008F10101884649450FDA8045F8DB3B
:1030D0001BF808100029F4D108E008F10101884626
:1030E0008142FADB1BF808100029F6D1DDE90F2335
:1030F000AAEB08008146214600F036F9304400EB87
:10310000080604E0DDE90F121BF8010B9047B8F147
:103110000108F7D221464846F7E00A21C4F30253DA
:103120004FF0000B0891022B04D001CFC117032BE5
:1031300009D00AE0FF1D27F00707F7E8020108E0C1
:1031400032E01FE020E000B2C117042B01D140B2F1
:10315000C117031E71F1000307DA4FF0000CD0EB2A
:103160000C006CEB01012D2302E0230504D52B2379
:103170008DF82430012303E0E30701D02023F7E793
:10318000984658E00A2110E010210EE010204FF080
:10319000000B08900CE010214FF0000B44F00404E9
:1031A0004FF00809089103E008214FF0000B089147
:1031B000C4F30253022B04D001CF0021032B06D00D
:1031C00006E0FF1D27F00707F7E8020103E080B2E1
:1031D000042B00D1C0B24FF0000823072BD5702A72
:1031E00007D0DDF820C08CF0100C5CEA0B0C05D089
:1031F0000EE040238DF82430012308E050EA01035B
:1032000006D030238DF824308DF8252002239846EF
:10321000DDF820C08CF0080C5CEA0B0C0BD150EAF6
:10322000010301D1630706D530238DF824304FF018
:103230000108A9F10109582A04D038A20B9208AA62
:103240000A920BE03AA2F9E75B46089AFCF766FFA0
:103250000B9B9B5C0A9A521E0A92137050EA010261
:10326000F2D10A98ADEB000000F1200B600702D507
:1032700024F4803401E04FF00109D94502DDA9EBC7
:103280000B0000E0002000EB0B0141440890AAEB8A
:10329000010AE00306D4DDE90F232146504600F081
:1032A00063F806444FF0000908E009A911F8090085
:1032B000DDE90F12904709F10109761CC145F4DBE5
:1032C000E0030CD5DDE90F232146504600F04CF811
:1032D000064404E0DDE90F1230209047761C08997F
:1032E000481E08900029F5DC08E00A980A99007841
:1032F000491C0A91DDE90F129047761CBBF10001D1
:10330000ABF1010BF1DC21465046DDE90F2300F063
:1033100019F806446D1C1BE60928010030313233D0
:103320003435363738396162636465660000000001
:1033300030313233343536373839414243444546EB
:10334000000000002DE9F041044600251E46174606
:10335000880404D405E039462020B0476D1C641E63
:10336000F9D52846BDE8F0812DE9F0410446002555
:103370001E469046C80301D5302700E02027880468
:1033800004D505E041463846B0476D1C641EF9D5AA
:103390002846BDE8F0810000000000006E83F9A21D
:1033A0002915444ED15727FCC0DD34F5999562DBD1
:1033B0004190433CAB6351FE01000000020000005D
:1033C000200000000200000000000000800000005B
:1033D00004000000000000002000000008000000C1
:1033E00000000000080000001000000002000000C3
:1033F00008000000200000000200000002000000A1
:10340000400000000000000001000000000100007A
:103410000200000010000000000200000000000098
:103420004000000000040000000000001000000048
:103430000008000000000000040000000010000070
:103440000200000004000000002000000200000054
:103450000100000000000200000000000200000067
:103460000000080001000000010000000000100042
:103470000100000002000000FFFFFFFF000000004D
:1034800000000000000000000095BA0A21000000C2
:10349000000000000000000000000000000E2707F0
:1034A0001200000000000000000000000100000009
:1034B0000095BA0A21000000010000000000000091
:1034C00001000000000E27071200000001000000AC
:1034D00000000000020000000095BA0A120000007F
:1034E000010000000000000002000000000E27079D
:1034F000120000000200000000000000FFFFFFFFBC
:1035000000000000000000000000000000000000BB
:10351000303500000000002038000000082F0000B7
:103520006835000038000020200A0000182F000035
:103530000000000000000000EA95323C007C1249C7
:103540000000C8420000FA4593AA4C39000020410F
:10355000000020C10000A040E7FB293E00409C4540
:08356000000020410000000002
:04000005000000E512
:00000001FF
